:030000000208BC37
:1008BC0075C7AA75C75575FD5A75C7AA75C75575FD
:1008CC00FDA5787FE4F6D8FD9000007FFF7E03E461
:0C08DC00F0A3DFFCDEFA75810902088E33
:0A08E8004580F590F5807FE87E035F
:1008F200E4FDFCC3ED9FEC9E5015E4FBFA0BBB003C
:0F090200010AEB647B4A70F50DBD00010C80E427
:0109110022C3
:1009A000900000AF82A8077401088002C333D8FC0E
:1009B000FFF5908F801208EEA3E5826408458370EE
:0109C000E254
:0109C1002213
:1009C200900000AF82A8077480088002C313D8FC8D
:1009D200FFF5908F801208EEA3E5826408458370CC
:0109E200E232
:0109E30022F1
:10093700E4F590F580F582F583AF82A80774010886
:100947008002C333D8FC1208E8A3E5826408458314
:0209570070E747
:01095900227B
:10095A00E4F590F580F582F583AF82A807748008E4
:10096A008002C313D8FC1208E8A3E5826408458311
:02097A0070E724
:01097C002258
:10080000E4F590F580F582F583AF82A807740108BE
:100810008002C333D8FCFFF5908F801208EEA3E569
:10082000826408458370E2E4F583F582AF82A8070D
:100830007480088002C313D8FCFFF5908F801208E3
:0A084000EEA3E5826408458370E230
:01084A00228B
:10084B00E4F590F580F582F583AF82A80774010873
:10085B008002C333D8FC1208E8A3E5826408458301
:10086B0070E7E4F583F582AF82A807747F088002F6
:10087B00C313D8FC55801208EAA3E58264084583AC
:02088B0070E516
:01088D002248
:1009E400E4F590F580F582F583E41208EA7590FF4A
:0F09F4007580FF1208F2A3E5826405458370EA5F
:010A030022D0
:10091200E4F590F580F582F58375900F75800F12DE
:1009220008EE7590F07580F01208F2A3E582640576
:04093200458370E5A4
:01093600229E
:10097D00E4F580F582F5837590557580551208EE76
:10098D007590AA7580AA1208F2A3E58264054583C5
:02099D0070E503
:01099F002235
:10088E00E4F590F580F5B1F5B2F5B3F5B4F5ACF548
:10089E00AD1209A01209C212093712095A12080024
:0E08AE0012084B1209E412091212097D80E3B0
:00000001FF
