:03000000020925CD
:1009250075C7AA75C75575FD5A75C7AA75C7557593
:10093500FDA5787FE4F6D8FD9000007FFF7E03E4F7
:0C094500F0A3DFFCDEFA75814A02098C89
:100A48000831FEFCF8F0E0C080000818FF7F3F1F67
:100A58000F07030108410103070F1F3F7FFF092804
:100A680080C0E0F0F8FCFEFF000810FEFDFBF7EF89
:100A7800DFBF7F08397FBFDFEFF7FBFDFE082001EE
:100A88000204081020408008088040201008040252
:010A9800015C
:0D0D7F007431AF822FF8E6F5907FEE7E0212
:100D8C00E4FDFCC3ED9FEC9E5015E4FBFA0BBB009D
:0F0D9C00010AEB647B4A70F50DBD00010C80E489
:010DAB002225
:040DAC008E498F4A93
:100DB000900000C3E582954AE5496480F8E58364C4
:100DC00080985014E4F590F580120D887590FF75A9
:080DD00080FF120D8CA380DBF3
:010DD80022F8
:100B7B007580FF7590FF900000120D7F7590FF122E
:100B8B000D8CA3E5826408458370EEE4F590F58344
:100B9B00F582AF8274312FF8E6F580120D887580DF
:100BAB00FF120D8CA3E5826408458370E5E4F580A4
:010BBB002217
:100A9A00E4F580F5907580FE7590FE120D887580DC
:100AAA00FD7590FD120D8C7580FA7590FA120D8CF9
:100ABA007580F57590F5120D8C7580EA7590EA12BD
:100ACA000D8C7580D57590D5120D8C7580AA759090
:0D0ADA00AA120D8C758055759055020D8C7B
:100DFE00900000AF8274312FF8E6F580120D8875E1
:0E0E0E0080FF120D8CA3E5826403458370E51E
:010E1C0022B3
:040D51008E498F4AEE
:100D5500900000C3E582954AE5496480F8E583641F
:100D6500809850157590AA758055120D8875905507
:090D75007580AA120D8CA380DA2E
:010D7E002252
:100E1D00E4F5907580FF120D887590FFE4F5800262
:020E2D000D8C2A
:100BBC00900000AF8274202FF8E6F580120D86A30A
:100BCC00E5826408458370EBE4F580F590F583F5D8
:100BDC0082AF8274082FF8E6F580120D86A3E582A9
:0C0BEC006408458370EB7590FF7580FF76
:010BF80022DA
:100D1A00E4F590F580F582F5837420120D81A3E540
:100D2A00826408458370F2E4F590F583F582AF8218
:100D3A0074082FF8E6F580120D88A3E58264084549
:060D4A008370EBE4F5806C
:010D50002280
:100CA800E4F590F580F582F583AF8274202FF8E69D
:100CB800F580120D88A3E5826408458370EBE4F59E
:100CC80080F583F582AF827408120D83A3E58264F0
:080CD80008458370F0E4F5907B
:010CE00022F1
:100E2F007580FE120D887580FA120D8C7580F80290
:020E3F000D8C18
:100DD900E4F5807590FFF582F583120D7FAF82747B
:100DE900312FF8E6F5807FEE120D8CA3E5826408B9
:040DF900458370E6D8
:010DFD0022D3
:100C3400E4F5807590FFF582F583AF8274312FF867
:100C4400E6F580120D86A3E5826408458370EBE423
:100C5400F583F582AF8274412FF8E6F580120D8694
:090C6400A3E5826408458370EBEE
:010C6D002264
:100B3300E4F5807590FFF582F583120D7FAF827423
:100B4300182FF8E6F5807FEE120D8CA3E58264087A
:100B5300458370E6E4F583F582AF827441120D8319
:100B6300AF8274282FF8E6F5807FEE120D8CA3E593
:070B7300826408458370E273
:010B7A002258
:100AE700E4F5807590FFF582F583AF827418120DD7
:100AF70083AF8274312FF8E6F5807FEE120D8CA359
:100B0700E5826408458370E2E4F583F582AF827479
:100B170028120D83AF8274412FF8E6F5807FEE121D
:0B0B27000D8CA3E5826408458370E29A
:010B320022A0
:100CE100E4F580F590F582F583AF8274202FF8E664
:100CF100F580120D88A3E5826403458370EBE4F56A
:100D010083F582AF8274082FF8E6F580120D88A36F
:080D1100E5826403458370EBE9
:010D190022B7
:100BF900E4F590F580120D887590FF7580FF120D50
:100C09008CE4F590F580120D8C7590FF7580FF12BC
:100C19000D8C900000AF8274312FF8E6F580120D2B
:0A0C290088A3E5826403458370EBA5
:010C3300229E
:10080000E4F590F580F582F583AF8274312FF8E638
:10081000F580120D86A3E5826408458370EBE4F54C
:1008200083F582AF8274412FF8E6F580120D86A31E
:10083000E5826408458370EBE4F583F582AF82744A
:10084000182FF8E6F580120D86A3E582640845832B
:1008500070EBE4F583F582AF8274282FF8E6F5801B
:10086000120D86A3E5826408458370EBE4F583F5F9
:1008700082120D7FA3E5826408458370F4E4F5835A
:10088000F582AF8274182FF8E6F580120D88A3E583
:10089000826408458370EBE4F583F582AF8274418E
:1008A0002FF8E6F580120D88A3E582640845837071
:1008B000EBE4F583F582AF8274282FF8E6F5801219
:1008C0000D88A3E5826408458370EBE4F583F58227
:1008D000AF8274312FF8E6F580120D88A3E58264AB
:1008E00008458370EBE4F583F582AF827418120D2E
:1008F00083A3E5826408458370F0E4F583F582AF55
:10090000827441120D83A3E5826408458370F0E48C
:10091000F583F582AF827428120D83A3E582640803
:04092000458370F0AB
:0109240022B0
:100C6E007590FF7580FFE4120D867590FF120D8C46
:100C7E00E4F590120D8C7590FF120D8CE4F590F545
:100C8E0080120D8C7580FF120D8CE4F580120D8C88
:0A0C9E007580FF120D8CE4F5802232
:1009D100E4F5B1F5B2F5B3F5B4F5ACF5AD7F057E4F
:1009E10000120DAC7F067E00120D51120B7B120D11
:1009F100FE120E1D120E1D120E1D120E1D7F047E03
:100A010000120DAC120BBC120BBC120D1A7F017E31
:100A110000120DAC120CA87F0A7E00120D51120CAF
:100A2100E1120C34120DD9120E2F120A9A120C3443
:100A3100120B33120AE7120B33120AE712080012E3
:070A41000C6E120BF9809608
:100951000209D1E493A3F8E493A34003F68001F2E2
:1009610008DFF48029E493A3F85407240CC8C333A7
:10097100C4540F4420C8834004F456800146F6DF76
:10098100E4800B0102040810204080900A48E47EB4
:10099100019360BCA3FF543F30E509541FFEE4936B
:1009A100A360010ECF54C025E060A840B8E493A332
:1009B100FAE493A3F8E493A3C8C582C8CAC583CA5D
:1009C100F0A3C8C582C8CAC583CADFE9DEE780BE15
:010A9900005C
:00000001FF
